:10000000D80C002041220000A9220000A9220000F3
:10001000A9220000A9220000A9220000000000007F
:10002000000000000000000000000000A922000005
:10003000A922000000000000A9220000A92200005F
:10004000A9220000A9220000A9220000A922000084
:10005000A9220000A9220000A9220000A922000074
:10006000A9220000A9220000A9220000A922000064
:10007000A9220000A9220000A9220000A922000054
:10008000A9220000A9220000A9220000A922000044
:10009000A9220000A9220000A9220000A922000034
:1000A000A9220000A9220000A9220000A922000024
:1000B000A9220000A9220000A9220000A922000014
:1000C000A9220000A9220000A9220000A922000004
:1000D000A9220000A9220000A9220000A9220000F4
:1000E000A9220000A922000000000000A9220000AF
:1000F000A9220000A9220000A9220000A9220000D4
:10010000A9220000A9220000A9220000A9220000C3
:100110000000000000000000A9220000A922000049
:10012000A9220000A9220000A9220000A9220000A3
:10013000A9220000A9220000A9220000A922000093
:1001400000000000000000000000000000000000AF
:10015000A9220000A9220000A9220000A922000073
:10016000000000000000000000000000000000008F
:10017000000000000000000000000000000000007F
:10018000000000000000000000000000000000006F
:10019000000000000000000000000000000000005F
:1001A000000000000000000000000000000000004F
:1001B000A9220000A9220000A9220000A922000013
:1001C000A9220000A9220000A9220000A922000003
:1001D000A9220000A9220000A9220000A9220000F3
:1001E000A9220000A9220000A9220000A9220000E3
:1001F000A9220000A9220000A9220000A9220000D3
:10020000A9220000A9220000A9220000000000008D
:10021000A9220000A9220000A9220000A9220000B2
:10022000A9220000A9220000A9220000A9220000A2
:10023000A9220000A9220000A9220000A922000092
:10024000A9220000A9220000A9220000A922000082
:10025000A9220000A9220000A9220000A922000072
:10026000A9220000A9220000A922000080B582B0C6
:1002700000AF7860054B1B687A6802FB03F31846F1
:1002800000F09EFC0837BD4680BD00BF5C04002026
:1002900080B500AF00F000FC00F00CF800F02CF886
:1002A00000F05CF800F086F800F09CF800F0C4F86C
:1002B00080BD00BF80B500AF0A4800F085FC00F0AB
:1002C0007DFD0246084BA3FB02239B09074A1360EE
:1002D000064B1B68064AA2FB03239B09054A1360D1
:1002E00080BD00BF400500C1F11976055C04002007
:1002F000D34D62105804002080B500AF134800F0C1
:1003000039FC0A2000F05CFC1148E02101F09CF867
:100310000F48202101220A2300F0FAFE0C48402158
:1003200001220A2300F0F4FE0948802101220A2359
:1003300000F0EEFE074800F01DFC0A2000F040FC33
:100340000548072101F096F880BD00BF020800F0C3
:1003500000600040040800F00040024080B500AF9B
:1003600005488021042200F067FE0348802101F047
:100370002DF801F019F980BD0060004080B483B011
:1003800000AF7860084B094A1A60074B084A5A6068
:10039000054B40221A727B68DAB2034B5A720C3753
:1003A000BD465DF8047B704770040020030800F030
:1003B0000070004080B500AF094800F0DBFB0A2068
:1003C00000F0FEFB4FF04020402101F03DF84FF0DF
:1003D0004020402101220A2300F09AFE80BD00BF88
:1003E000000800F080B500AF0E4800F0C3FB0E48D7
:1003F00000F0C0FB4FF0031001F094F80B4801F03F
:1004000091F80B48012101F061F80948022101F03F
:1004100047F800F0D3FC034606481946002200F0D6
:10042000C1F980BD032000F0030800F003040300BD
:10043000007000400030024080B582B002AF284812
:1004400000F098FB0A2000F0BBFB264800F092FB6E
:100450000A2000F0B5FB244B244A1A60244A244B9E
:100460001B6843F001031360224A224B1B6843F0D0
:1004700001031360204A204B1B6843F00103136003
:10048000194B00221A600A2000F09AFB1B48002139
:1004900001F0B4F91A4801F045F81A4801F042F8A1
:1004A000194801F03FF81948072101F025F84FF4E9
:1004B0007A730093102301931048154900220023FA
:1004C00001F044F91148082100F0D4FF0F48082139
:1004D000082200F0A3FF094801F07EF9BD4680BD67
:1004E000050800F0011C00F0205502404B434F4C22
:1004F00024550240205402401C5502400090004008
:100500000208050002000500020405000050024038
:10051000801A060080B500AF074801F077FA064858
:1005200001F098FA0548062101F038FC0248034919
:10053000002201F06BFC80BD700400207C040020D0
:1005400080B500AF044801F085FA034801F0EAFBEA
:10055000014801F083FB80BD7004002080B582B0AB
:1005600000AF78603960834801F074FA3A68134646
:10057000DB001344804A134402337E48194601F0DD
:10058000DDFB7C487D4901F07BFB7C48092101F0C3
:100590001FFE0346002B00F0D780784B5B789AB2A1
:1005A000774B1A80764B1B881B029AB2744B1A80C9
:1005B000724B1B789AB2724B1B8813439AB2704BE2
:1005C0001A806E4B5B78DB09DBB29AB26D4B1A80F6
:1005D0006C4B1B88002B38D1684B1B7803F00C0345
:1005E0009B10184601F0BEFF02460B461046194606
:1005F0004FF00002644B02F01BF802460B46104617
:10060000194602F0AFFA0246604B1A605C4B1B8839
:100610001B099AB25A4B1A80594B1B88184602F094
:10062000ABFB0246594B1B681046194602F0F0FA24
:100630000346184601F0A8FF02460B467968C1E957
:100640000023322000F0BCFA40E04D4B1B88C3F37E
:100650000E039AB24A4B1A80494B1B881B099AB267
:10066000474B1A80454B1B7803F00C039B10184630
:1006700001F078FF02460B46104619464FF0000283
:10068000414B01F0D5FF02460B461046194602F0D9
:1006900069FA02463D4B1A60394B1B88A3F500638B
:1006A000184602F069FB0246384B1B681046194693
:1006B00002F0AEFA0346184601F066FF02460B460A
:1006C0007968C1E90023322000F07AFA2B4BDB78FD
:1006D0009AB22F4B1A80294BDB78DB09DBB29AB236
:1006E0002C4B1A802B4B1B88002B2DD1234B9B7836
:1006F000002B02D04FF07E5301E04FF00003264A5A
:100700001360254B1B6818464FF0765102F088FBAA
:1007100003461A46204B1A601D4B1B88184602F0F0
:100720002BFB02461C4B1B681046194602F070FA60
:100730000346184601F028FF02460B461749C1E957
:100740000023322000F03CFA7B68D3E900231046F6
:1007500019464FF00002124B02F0F0F90346002B4D
:1007600002D04FF0FF3300E0002318460837BD46A3
:1007700080BD00BF700400207C040020B404002071
:100780006C040020D00400200000D03F08040020AA
:100790006604002064040020C0040020C804002077
:1007A00000408F4080B586B000AFF860B960134656
:1007B000FB71F86800F042F8FB79002B02D01B4B6C
:1007C0007B6101E01A4B7B617A6913469B001344FD
:1007D0009B001A46BB681344591E7A6913469B0056
:1007E00013449B00B1FBF3F3013B3B61FB680C330B
:1007F0001A463B691360FB6803F57C631B6803F0D2
:100800000103002B0FD0BA680A4B13440A4AA2FB1B
:100810000323DB0D013B3B61FB680C331A463B694C
:1008200043F0800313601837BD4680BD801A060070
:10083000A08601007F4737017DD0446980B483B032
:1008400000AF78607B6820331A467B6820331B68D2
:1008500043F0100313600C37BD465DF8047B70470E
:1008600080B487B000AF786039601B4BBB600C234D
:10087000FB601A4B1A681A4B13401A4A934203D171
:10088000194BBB600823FB6000233B6119E03B6907
:10089000DB00BA6813441A687B689A420ED13B6940
:1008A000DB00BA6813445B687B613B68B3F57F4F3C
:1008B00002D17B6901337B617B6907E03B690133CE
:1008C0003B613A69FB689A42E1D3002318461C3722
:1008D000BD465DF8047B7047C030000000E00F406B
:1008E0000000FF7000000A102431000080B483B0C3
:1008F00000AF786039607B680C3318467B680C3336
:100900001A68396840F201130B40134303600C3737
:10091000BD465DF8047B704780B483B000AF78605B
:1009200039607B680C331A467B680C331B6823F4F0
:10093000807323F0010313607B683A68120E1A601B
:100940001C4B1A681C4B13401C4A93421BD17B68FA
:10095000043319463B6803F470231A093B68DBB281
:10096000134343F400730B607B68083319463B68FC
:1009700003F470031A0A3B681B0ADBB2134343F407
:1009800000730B6010E07B6804331A463B68DBB2EF
:1009900043F4007313607B6808331A463B681B0AF4
:1009A000DBB243F4007313600C37BD465DF8047B83
:1009B000704700BF00E00F400000FF7000000A1009
:1009C00080B485B000AFF860B9607A60BB68DBB214
:1009D000002B04D0FB6828331A467B681360BB6881
:1009E00003F47F43002B04D0FB682C331A467B684A
:1009F00013601437BD465DF8047B704780B586B040
:100A000000AFF860B9607A60F868B968FFF728FF4E
:100A100078617869796800F0D3FD786900F002FEAA
:100A20001837BD4680BD00BF80B483B000AF78608A
:100A300039607B68183319467B6818331A683B683D
:100A400013430B600C37BD465DF8047B704700BF55
:100A500080B483B000AF786039607B681833194682
:100A60007B6818331A683B68DB4313400B600C3714
:100A7000BD465DF8047B704780B483B000AF7860FA
:100A800039607B6824331A463B6813600C37BD46D7
:100A90005DF8047B704700BF80B400AF044A044B8C
:100AA0001B6843F040431360BD465DF8047B70470C
:100AB00034EF00E080B582B000AF00237B600023FC
:100AC0003B60FFF7E5FB0020FFF758FCFFF722FD36
:100AD000FFF736FD4FF4FA60FFF7C8FB0B48032120
:100AE000FFF73CFD0A480121FFF738FD09480221C4
:100AF000FFF734FD08480421FFF730FD07480021C7
:100B0000FFF72CFD0120FFF7B1FBE1E728040020EF
:100B1000300400204004002048040020500400203D
:100B200080B483B000AF78607B6803F47F431A0A17
:100B30000F4B134403F070427B6803F47F43190AA0
:100B40000B4B0B44C3F313035B011A437B68DBB20B
:100B50009B00134343F000731B68002B14BF012359
:100B60000023DBB218460C37BD465DF8047B7047A6
:100B700000EA0F4080B483B000AF78607B6803F474
:100B80007F431A0A0D4B134403F070427B6803F451
:100B90007F43190A094B0B44C3F313035B011A4348
:100BA0007B68DBB29B00134343F000731A460123BA
:100BB00013600C37BD465DF8047B704700E60F40BC
:100BC00001387FF4FDAF704780B586B000AF786024
:100BD000724B1B683B61724B1B68FB603B6943F4C3
:100BE00000633B613B6923F480033B61FB6843F492
:100BF0000063FB60694A3B691360694AFB681360E4
:100C00003B6903F00103002B26D07B6803F001034E
:100C1000002B21D17B6863F001033A6913403B61EB
:100C2000604B4FF480721A605C4A3B6913604FF46A
:100C300000237B6106E07B69013B7B617B69002BC4
:100C400000D105E0584B1B6803F48073002BF2D0F1
:100C50007B69002B00D19EE03B6923F4FE633B617E
:100C60007B6803F4FE633A6913433B61FB6823F03E
:100C7000004323F07003FB607A684C4B1340FA6822
:100C80001343FB607B6803F00803DB00FA6813433F
:100C9000FB60424A3B691360414AFB6813603B6951
:100CA00023F400533B617B6803F400533A69134318
:100CB0003B61FB6823F40053FB607B6803F4005343
:100CC000FA681343FB60374B40221A60FB68002B25
:100CD00006DA334AFB681360304A3B69136005E06B
:100CE0002E4A3B6913602E4AFB6813603B6923F070
:100CF000F86323F001033B617A682D4B13403A6996
:100D000013433B61FB6823F0FC53FB607B6803F0FB
:100D1000FC53FA681343FB607B6803F08043002BAD
:100D20000ED03B6943F480033B61FB6823F48003EE
:100D3000FB607A681F4B1340FA681343FB6003E0C3
:100D4000FB6823F08043FB607B6803F40063002BA7
:100D500018D14FF400437B6109E0174B1B6803F087
:100D60000103002B00D005E07B69013B7B617B69BF
:100D7000002BF2D13B6923F400633B61FB6823F451
:100D80000063FB60054A3B691360054AFB6813601A
:100D90001020FFF715FF1837BD4680BD60E00F40FB
:100DA00070E00F4058E00F4050E00F4030000080EE
:100DB0000100C0070000404068E10F4080B487B0E8
:100DC00000AF714B1B687B61704B1B68BB60BB68DD
:100DD000002B03DABB6803F0700302E07B6903F0C9
:100DE0003003202B17D0202B04D8002B07D0102B3A
:100DF0000ED01BE0302B11D0702B13D016E07B6986
:100E000003F4F8639B09624A52F823303B610FE018
:100E1000604B3B610CE0604B3B6109E047F23053B3
:100E20003B6105E04FF400433B6101E00023A5E096
:100E30004FF0FF33FB60BB68002B04DABB6803F4A0
:100E40000063002B07D0BB68002B55DB7B6903F4E4
:100E50000063002B50D1514B1B687B60504B1B68CB
:100E60003B603B6803F4F8531B0A01333A6802F015
:100E70001F02013202FB03F35B003A69B2FBF3F39A
:100E80003B617B68C3F309033A6902FB03F27968AB
:100E9000444B0B409B0A396901FB03F39B0A134443
:100EA0003B617B6943F480037B613F4B1B6803F428
:100EB0007043B3F5804F16D0B3F5804F06D8B3F525
:100EC000005F0AD0B3F5405F0AD015E0B3F5E04FFC
:100ED0000CD0B3F5104F0CD00EE0344BFB600BE0A0
:100EE000334BFB6008E0334BFB6005E0324BFB60AB
:100EF00002E0324BFB6000BF7B6903F48003002BF0
:100F000035D0BB68002B29DABB6803F08043002B87
:100F10001AD0BB68002B04DABB6803F40063002B13
:100F200007D0BB68002B0FDB7B6903F40063002B49
:100F30000AD13B695A00BB6803F0FE539B0D013395
:100F4000B2FBF3F33B6112E0BB6803F0FC53DB0D33
:100F500001333A69B2FBF3F33B6108E07B6903F0CC
:100F6000F063DB0D01333A69B2FBF3F33B61FA68DE
:100F70003B699A4201D2FB683B613B6918461C37CA
:100F8000BD465DF8047B704760E00F4070E00F40A5
:100F9000683100000024F40000093D0060E10F40CA
:100FA00064E10F4000FC0F0010E00F4000B4C404E7
:100FB00080F0FA02005A620240787D01002D310172
:100FC00080B485B000AFF8600B467A60FB72FB68B6
:100FD00003F5806319467B6803F00103002B06D0FC
:100FE000FB6803F580631A68FB7A134306E0FB682D
:100FF00003F580631B68FA7AD24313400B60FB68E9
:1010000003F5846319467B6803F00203002B06D0C6
:10101000FB6803F584631A68FB7A134306E0FB68F8
:1010200003F584631B68FA7AD24313400B601437CC
:10103000BD465DF8047B704780B485B000AFF860B2
:101040000B467A60FB72FB6803F5816319467B6887
:1010500003F00103002B06D0FB6803F581631A68D7
:10106000FB7A134306E0FB6803F581631B68FA7A99
:10107000D24313400B60FB6803F2044319467B68BC
:1010800003F00203002B06D0FB6803F204431A6846
:10109000FB7A134306E0FB6803F204431B68FA7A09
:1010A000D24313400B60FB6803F20C4319467B6884
:1010B00003F00403002B06D0FB6803F20C431A680C
:1010C000FB7A134306E0FB6803F20C431B68FA7AD1
:1010D000D24313400B60FB6803F5A7631A467B6895
:1010E00003F48033002B06D0FB6803F5A7631B686D
:1010F00043F0010305E0FB6803F5A7631B6823F0D9
:10110000010313601437BD465DF8047B704700BFD0
:1011100080B487B000AFF8607A603B600B46FB722A
:101120000023FB752CE0FA7AFB7D42FA03F303F00F
:101130000103002B21D0FB6803F6C4731846FB683B
:1011400003F6C4731B68FA7D5200032101FA02F210
:10115000D24313400360FB6803F6C4731846FB6870
:1011600003F6C4731A687B685B0903F00301FB7D17
:101170005B0001FA03F313430360FB7D0133FB754E
:10118000FB7D072BCFD9FB6803F5A06319467B686D
:1011900003F00103002B06D0FB6803F5A0631A6877
:1011A000FB7A134306E0FB6803F5A0631B68FA7A39
:1011B000D24313400B60FB6803F2045319467B686B
:1011C00003F00203002B06D0FB6803F204531A68F5
:1011D000FB7A134306E0FB6803F204531B68FA7AB8
:1011E000D24313400B60FB6803F5A16319467B688B
:1011F00003F00403002B06D0FB6803F5A1631A6813
:10120000FB7A134306E0FB6803F5A1631B68FA7AD7
:10121000D24313400B60FB6803F5A36319467B6858
:1012200003F00803002B06D0FB6803F5A3631A68DC
:10123000FB7A134306E0FB6803F5A3631B68FA7AA5
:10124000D24313400B60FB6803F23C5319467B68A2
:1012500003F01003002B06D0FB6803F23C531A681E
:10126000FB7A134306E0FB6803F23C531B68FA7AEF
:10127000D24313400B60FB6803F20C5319463B68E2
:1012800003F00103002B06D0FB6803F20C531A682D
:10129000FB7A134306E0FB6803F20C531B68FA7AEF
:1012A000D24313400B60FB6803F5A26319463B6809
:1012B00003F00203002B06D0FB6803F5A2631A6853
:1012C000FB7A134306E0FB6803F5A2631B68FA7A16
:1012D000D24313400B60FB6803F2145319463B687A
:1012E00003F00403002B06D0FB6803F214531A68C2
:1012F000FB7A134306E0FB6803F214531B68FA7A87
:10130000D24313400B60FB6803F21C5319463B6841
:1013100003F00803002B06D0FB6803F21C531A6885
:10132000FB7A134306E0FB6803F21C531B68FA7A4E
:10133000D24313400B60FB6803F2445319463B68E9
:1013400003F40073002B06D0FB6803F244531A68C1
:10135000FB7A134306E0FB6803F244531B68FA7AF6
:10136000D24313400B60FB6803F5A86319463B6842
:1013700003F44073002B06D0FB6803F5A8631A68DA
:10138000FB7A134306E0FB6803F5A8631B68FA7A4F
:10139000D24313400B60FB6803F5A56319463B6815
:1013A000002B06D1FB6803F5A5631A68FB7A13438B
:1013B00006E0FB6803F5A5631B68FA7AD243134085
:1013C0000B601C37BD465DF8047B704780B483B06A
:1013D00000AF786039607B6803F5826319467B68EB
:1013E00003F582631A683B6813430B600C37BD46F4
:1013F0005DF8047B704700BF80B483B000AF7860B5
:101400000B46FB70FB789B001A467B6813441B68F5
:1014100018460C37BD465DF8047B704780B483B036
:1014200000AF78600B46FB701346BB70FB789B00E7
:101430001A467B6813441A46BB7813600C37BD46C6
:101440005DF8047B704700BF80B582B000AF786064
:101450000B46FB70FB78786819460022FFF7B0FD59
:10146000FB787868194601220823FFF751FE0837F8
:10147000BD4680BD80B582B000AF78600B46FB7082
:10148000FB787868194601220823FFF741FEFB78B4
:10149000786819460122FFF793FD0837BD4680BDE5
:1014A00080B582B000AF78600B46FB70FB7878683F
:1014B00019460222FFF784FDFB787868194601225D
:1014C0000923FFF725FE0837BD4680BD80B582B0F1
:1014D00000AF78600B46FB70FB78786819460222F3
:1014E000FFF76EFDFB787868194601220823FFF7A5
:1014F0000FFE0837BD4680BD80B582B000AF786072
:101500000B46FB70FB78786819460222FFF758FDFE
:10151000FB787868194601220823FFF7F9FD0837A0
:10152000BD4680BD80B485B000AF78607B681B0C81
:10153000DBB2FB601A4B1B68FA68012101FA02F268
:101540001340002B07D0FB685B000133154A52F8AB
:101550002330FB6005E0FB685B00124A52F8233041
:10156000FB607B681B0ADBB2BB60FB6803F22C5399
:101570001846FB6803F22C531B68BA680F2101FA66
:1015800002F2D2431A407B6803F00F01BB6801FAF4
:1015900003F3134303601437BD465DF8047B7047C3
:1015A0006CE00F40B434000080B500AF00F080FE66
:1015B0000346002B14BF01230023DBB2184680BD75
:1015C00080B485B000AF78603960144B1B68144A52
:1015D000934218D0114B1B68BB600023FB600CE0EA
:1015E000FB689A00BB6813441B6819460C4AFB68E9
:1015F00042F82310FB680133FB60FB689A2BEFD99C
:10160000064B074A1A6006497B683A6841F823206E
:101610001437BD465DF8047B704700BF08ED00E05D
:101620000000002080B483B000AF78607B68042B9A
:1016300006D11E4A1D4B1B6843F4803313602FE014
:101640007B68052B06D1194A184B1B6843F40033FD
:10165000136025E07B68062B06D1144A134B1B68E8
:1016600043F4802313601BE07B680F2B06D1104AE4
:101670000F4B1B6843F00203136011E07B680F2BD4
:101680000ED97B68103B5B090A4A52F82330194691
:101690007B68103B03F01F03012202FA03F30B6087
:1016A0000C37BD465DF8047B704700BF24ED00E0B9
:1016B00010E000E00036000080B483B000AF786036
:1016C0007B68042B06D11E4A1D4B1B6823F4803314
:1016D00013602FE07B68052B06D1194A184B1B6855
:1016E00023F40033136025E07B68062B06D1144AEF
:1016F000134B1B6823F4802313601BE07B680F2BC4
:1017000006D1104A0F4B1B6823F00203136011E04F
:101710007B680F2B0ED97B68103B5B090A4A52F895
:10172000233019467B68103B03F01F03012202FAA5
:1017300003F30B600C37BD465DF8047B704700BFB8
:1017400024ED00E010E000E01436000080B48BB01F
:1017500000AFF860B9607A603B603B68002B01D154
:10176000002300E004233B62FB6804331A463B6A13
:101770001360BA683B6BB2FBF3F3FB6100237B623F
:101780007B6A02337B62FA697B6AB2FBF3F3013B4B
:10179000BB61BB69FF2BF3D8FB6810331A467B6A29
:1017A00013607B689B01DBB27B617B6803F03003D5
:1017B0007B60BB691A027B691A437B681A437B6BA7
:1017C000013B13433B62FB683A6A1A602C37BD4603
:1017D0005DF8047B704700BF80B483B000AF7860D1
:1017E0007B6804331A467B6804331B6843F00203AA
:1017F00013600C37BD465DF8047B704780B483B03E
:1018000000AF786039607B6803F6C8731A463B689E
:1018100013600C37BD465DF8047B704780B500AFA0
:10182000094B01225A70084B1B78DBB21946074A54
:101830000B465B000B449B0013445B681846012178
:10184000FFF71AF980BD00BFD40400205036000015
:1018500080B582B000AF0346FB71FFF7AFFA0246D6
:10186000264BA3FB02239B0C254A1360254AFB79D8
:101870001370244B1B78DBB21946234A0B465B00DE
:101880000B449B0013441B681846FFF773F900BF15
:101890001C4B1B78DBB219461B4A0B465B000B4402
:1018A0009B0013441B681846FFF73AF9034683F080
:1018B0000103DBB2002BEBD1124B1B78DBB21946D4
:1018C000114A0B465B000B449B0013445B681846AF
:1018D0002121FFF721F80B4B1B78DBB219460A4A8E
:1018E0000B465B000B449B0013445B681846FF21CA
:1018F000064AFFF783F80837BD4680BD83DE1B43E9
:1019000000040020D4040020503600001D18000000
:1019100080B584B000AF7860394B1A687B6802FBF1
:1019200003F3FB60374B00225A70364B1B78DBB257
:101930001946354A0B465B000B449B0013445A681A
:10194000FB68013B1046FF211A46FFF739F82D4B83
:101950001B78DBB219462C4A0B465B000B449B00FC
:1019600013445B681846FF21FEF7C0FF254B1B7828
:10197000DBB21946244A0B465B000B449B00134420
:1019800008331B681846FFF74DFE1E4B1B78DBB271
:1019900019461D4A0B465B000B449B0013445B68D1
:1019A00018460121FFF740F8FFF7FEFD00BF154B79
:1019B0005B78DBB283F00103DBB2002BF7D1114B74
:1019C0001B78DBB21946104A0B465B000B449B00A8
:1019D00013445B6818460121FFF73AF8094B1B785E
:1019E000DBB21946084A0B465B000B449B001344CC
:1019F00008331B681846FFF75FFE1037BD4680BDF1
:101A000000040020D40400205036000080B582B0CD
:101A100000AF78607B685B7A1846FFF719FF7B6838
:101A20001B681846FFF7A6F87B685A687B681B7A24
:101A30001046194601220923FFF76AFB7B685A68A2
:101A40007B681B7A10461946FFF7FEFC0837BD4637
:101A500080BD00BF80B584B000AF78607B685A68F5
:101A60007B681B7A10461946FFF704FD7B685A68AD
:101A70007B681B7A104619460022FFF7CFFC40F224
:101A8000D910FFF745FF7B685A687B681B7A1046C0
:101A9000194601220923FFF73BFB7B685A687B68E4
:101AA0001B7A10461946FFF7CFFC4920FFF730FF9D
:101AB0007B685A687B681B7A10461946FFF79CFCC6
:101AC0000346FB6040F28910FFF722FFFB68002B02
:101AD0000CBF01230023DBB218461037BD4680BD82
:101AE00080B582B000AF78600B46FB707B685A68A7
:101AF0007B681B7A10461946FFF7BCFCFB78002B6D
:101B000021D07B685A687B681B7A104619460022F0
:101B1000FFF784FC0120FFF7FBFE7B685A687B68B7
:101B20001B7A1046194601220923FFF7F1FA7B6858
:101B30005A687B681B7A10461946FFF785FC3420EB
:101B4000FFF7E6FE20E07B685A687B681B7A104648
:101B500019460022FFF762FC3420FFF7D9FE7B68AC
:101B60005A687B681B7A1046194601220923FFF741
:101B7000CFFA7B685A687B681B7A10461946FFF7D4
:101B800063FC0120FFF7C4FE0837BD4680BD00BFDF
:101B900080B584B000AF78600023FB737B685A681F
:101BA0007B681B7A10461946FFF764FC7B685A680D
:101BB0007B681B7A104619460022FFF72FFC012094
:101BC000FFF7A6FE7B685A687B681B7A10461946A9
:101BD00001220923FFF79CFA7B685A687B681B7A0D
:101BE00010461946FFF730FC0120FFF791FE7B6895
:101BF0005A687B681B7A10461946FFF7FDFB0246C0
:101C00007B681B7A1340002B01D00123FB73242037
:101C1000FFF77EFEFB7B18461037BD4680BD00BF38
:101C200080B584B000AF78600B46FB700823FB736F
:101C30000DE0FB7803F00103DBB278681946FFF78B
:101C40004FFFFB785B08FB70FB7B013BFB73FB7B6F
:101C5000002BEED11037BD4680BD00BF80B582B0ED
:101C600000AF786078684421FFF7DAFF00BF78683A
:101C7000FFF78EFF0346002BF9D00837BD4680BD25
:101C800080B584B000AF786039600023FB72002318
:101C9000FB7307E0FB7B3A68134400221A70FB7B5E
:101CA0000133FB73FB7B082BF4D97868BE21FFF767
:101CB000B7FF0023FB7327E07868FFF769FF03464F
:101CC000BB7307F10B02BB7B1046194600F05AFAB2
:101CD000FB7BDB087B73FB7B03F007033B737B7BA6
:101CE0003A6813447A7B39680A441278D0B2B97BD7
:101CF0003A7B01FA02F2D2B201460A43D2B2D2B220
:101D00001A70FB7B0133FB73FB7B472BD4D9FB7A27
:101D1000002B0CBF01230023DBB218461037BD4651
:101D200080BD00BF80B582B000AF78607868CC21FC
:101D3000FFF776FF0837BD4680BD00BF80B584B091
:101D400000AF7860396078685521FFF769FF00239C
:101D5000FB731CE0FB7BDB08BB73FB7B03F007031F
:101D60007B73BB7B3A6813441B78D9B27B7B01221F
:101D700002FA03F3DBB20A461340DBB23B733B7B50
:101D800078681946FFF7ACFEFB7B0133FB73FB7BE6
:101D90003F2BDFD91037BD4680BD00BF80B485B072
:101DA00000AF78600B46FB707B6800225A707B683E
:101DB000FA781A700023FB731EE0FA7B79681346E9
:101DC000DB0013440B44083300229A700023BB73DA
:101DD0000CE0FA7BB87B79681346DB0013440344BC
:101DE0000B4400229A70BB7B0133BB73BB7B072B78
:101DF000EFD9FB7B0133FB73FA7BFB789A42DCD390
:101E00001437BD465DF8047B704700BFB0B586B09F
:101E100000AFF860B9601346FB71FA79B9681346F0
:101E2000DB0013440B4408339B78402B00D1A6E120
:101E3000F868FFF70FFEF868F021FFF7F1FE0023C6
:101E4000FB752BE0F868FFF7A3FE0346BB75F86847
:101E5000FFF79EFE03467B75FB7DDB083B75FB7D34
:101E600003F00703FB74FA79387DB9681346DB0089
:101E7000134403440B449B78D9B2FB7C012202FA41
:101E800003F3DBB20A461340DBB2BB74BB7CF868D9
:101E90001946FFF725FEFB7D0133FB75FA79B9681A
:101EA0001346DB0013440B4408339B78FA7D9A42B7
:101EB000C8D3F868FFF76CFE0346BB75F868FFF7F8
:101EC00067FE03467B75BB7D012B03D17B7D012B18
:101ED00000D154E1BB7D002B40F0C8807B7D002BFE
:101EE00040F0C480FA79B9681346DB0013440B4410
:101EF00008339B78002B0CD1BB685A78BB681B78E1
:101F00009A4200D13BE1BB685B780133DAB2BB682F
:101F10005A70FA79B9681346DB0013440B4408334E
:101F20009B78DB083B75FA79B9681346DB001344EC
:101F30000B4408339B7803F00703FB74FA79387D70
:101F4000F9793D7DBC680B46DB000B442B442344F0
:101F50009B78DCB2FB7C012101FA03F3DBB2DB43AB
:101F6000DBB221460B40DBB2DCB2B9681346DB00C2
:101F7000134403440B4422469A70FA79B968134615
:101F8000DB0013440B4408339B780133D8B2B968A3
:101F90001346DB0013440B44083302469A70BB68B7
:101FA0005A78BB681B789A425FD8BB685B787B74B1
:101FB000BB685B780133DAB2BB685A700023FB75EB
:101FC00015E07A7CF87DF979FD7DBC680B46DB0075
:101FD0000B442B4423449C78B9681346DB0013441C
:101FE00003440B4422469A70FB7D0133FB75FB7D55
:101FF000072BE6D97A7CF979B8680B46DB000B44ED
:10200000034408339878B9681346DB0013440B4443
:10201000083302469A707A7C387D797C3D7DBC68B5
:102020000B46DB000B442B4423449B78DCB2FB7C47
:10203000012101FA03F3DBB221460B43DBB2DCB230
:10204000B9681346DB00134403440B4422469A70DC
:10205000FB79F868B9681A46FFF7D8FE7B7CF86808
:10206000B9681A46FFF7D2FE89E088E0FA79B968C4
:102070001346DB0013440B4408339B78002B0CD130
:10208000BB685A78BB681B789A4200D177E0BB687E
:102090005B780133DAB2BB685A7052E0FA79B968FA
:1020A0001346DB0013440B4408339B78DB083B7575
:1020B000FA79B9681346DB0013440B4408339B7864
:1020C00003F00703FB74FA79387DF9793D7DBC682C
:1020D0000B46DB000B442B4423449B78DCB2B97DD8
:1020E000FB7C01FA03F3DBB221460B43DBB2DCB22B
:1020F000B9681346DB00134403440B4422469A702C
:10210000FA79B9681346DB0013440B4408339B7813
:102110000133D8B2B9681346DB0013440B440833CB
:1021200002469A70BB7DF8681946FFF7D9FCF8683B
:10213000FFF72EFD0346BB75F868FFF729FD034640
:102140007B75BA7D7B7D9A4209D0FA79B9681346CE
:10215000DB0013440B4408339B783F2B9ED9FA795C
:10216000B9681346DB0013440B4408339B783F2BBC
:1021700005D8FB79F868B9681A46FFF747FE1837A3
:10218000BD46B0BD80B485B000AF78600B46FB7033
:102190007B681B78DBB203F00103DAB2FB785340B3
:1021A000DBB2FB737B681B785B08DAB27B681A7062
:1021B000FB7B012B07D17B681B7883F07303DB4328
:1021C000DAB27B681A701437BD465DF8047B70473D
:1021D00080B584B000AF78600B46FB7000233B7382
:1021E0000023FB731EE00023BB7315E0FB7B7A68C2
:1021F00013441B781A46BB7B42FA03F3DBB203F0AD
:1022000001037B7307F10C027B7B10461946FFF735
:10221000B9FFBB7B0133BB73BB7B072BE6D9FB7BD1
:102220000133FB73FA7BFB789A42DCD33B7B002BB8
:102230000CBF01230023DBB218461037BD4680BD1A
:1022400080B582B000AF124B7B60124B3B6007E061
:102250003B681A1D3A607A68111D796012681A602D
:102260003B680D4A9342F3D30D480E494FF00002EC
:102270008842B8BF40F8042BFADB084A074B1B68BA
:1022800043F470031360FEF715FC0837BD4680BDAC
:1022900098360000000000200404002088ED00E0D3
:1022A00008040020D804002080B400AFFEE700BF7F
:1022B000EFF3108062B670471C462346184600BFF5
:1022C00081F0004102E000BF83F0004330B54FEAE7
:1022D00041044FEA430594EA050F08BF90EA020F54
:1022E0001FBF54EA000C55EA020C7FEA645C7FEAE7
:1022F000655C00F0E2804FEA5454D4EB5555B8BF0A
:102300006D420CDD2C4480EA020281EA030382EA7A
:10231000000083EA010180EA020281EA0303362D0C
:1023200088BF30BD11F0004F4FEA01314FF4801CDF
:102330004CEA113102D0404261EB410113F0004FF1
:102340004FEA03334CEA133302D0524263EB4303A8
:1023500094EA050F00F0A780A4F10104D5F1200E46
:102360000DDB02FA0EFC22FA05F2801841F10001A1
:1023700003FA0EF2801843FA05F359410EE0A5F175
:1023800020050EF1200E012A03FA0EFC28BF4CF0A6
:10239000020C43FA05F3C01851EBE37101F000455C
:1023A00007D54FF0000EDCF1000C7EEB00006EEB69
:1023B0000101B1F5801F1BD3B1F5001F0CD34908F3
:1023C0005FEA30004FEA3C0C04F101044FEA44524A
:1023D00012F5800F80F09A80BCF1004F08BF5FEAD1
:1023E000500C50F1000041EB045141EA050130BDB1
:1023F0005FEA4C0C404141EB010111F4801FA4F154
:102400000104E9D191F0000F04BF01460020B1FAA8
:1024100081F308BF2033A3F10B03B3F120020CDAE0
:102420000C3208DD02F1140CC2F10C0201FA0CF0BE
:1024300021FA02F10CE002F11402D8BFC2F1200C23
:1024400001FA02F120FA0CFCDCBF41EA0C019040D9
:10245000E41AA2BF01EB0451294330BD6FEA040422
:102460001F3C1CDA0C340EDC04F11404C4F120020D
:1024700020FA04F001FA02F340EA030021FA04F31F
:1024800045EA030130BDC4F10C04C4F1200220FA76
:1024900002F001FA04F340EA0300294630BD21FAB4
:1024A00004F0294630BD94F0000F83F4801306BF7A
:1024B00081F480110134013D4EE77FEA645C18BF6E
:1024C0007FEA655C29D094EA050F08BF90EA020F05
:1024D00005D054EA000C04BF1946104630BD91EAFD
:1024E000030F1EBF0021002030BD5FEA545C05D100
:1024F0004000494128BF41F0004130BD14F580043F
:102500003CBF01F5801130BD01F0004545F0FE41B2
:1025100041F470014FF0000030BD7FEA645C1ABFE7
:10252000194610467FEA655C1CBF0B46024650EA1E
:10253000013406BF52EA033591EA030F41F400214A
:1025400030BD00BF90F0000F04BF0021704730B5D0
:102550004FF4806404F132044FF000054FF00001A5
:1025600050E700BF90F0000F04BF0021704730B566
:102570004FF4806404F1320410F0004548BF40423B
:102580004FF000013EE700BF42004FEAE2014FEA90
:1025900031014FEA02701FBF12F07F4393F07F4F6B
:1025A00081F06051704792F0000F14BF93F07F4F9D
:1025B000704730B54FF4607401F0004521F00041E0
:1025C00020E700BF50EA010208BF704730B54FF066
:1025D00000050AE050EA010208BF704730B511F06B
:1025E000004502D5404261EB41014FF4806404F1A3
:1025F00032045FEA915C3FF4DCAE4FF003025FEA25
:10260000DC0C18BF03325FEADC0C18BF033202EBAC
:10261000DC02C2F1200300FA03FC20FA02F001FA06
:1026200003FE40EA0E0021FA02F11444C1E600BFA5
:1026300070B54FF0FF0C4CF4E06C1CEA11541DBF58
:102640001CEA135594EA0C0F95EA0C0F00F0DEF823
:102650002C4481EA030621EA4C5123EA4C5350EA08
:10266000013518BF52EA033541F4801143F4801359
:1026700038D0A0FB02CE4FF00005E1FB02E506F0EA
:102680000042E0FB03E54FF00006E1FB03569CF03F
:10269000000F18BF4EF0010EA4F1FF04B6F5007F45
:1026A00064F5407404D25FEA4E0E6D4146EB0606B7
:1026B00042EAC62141EA55514FEAC52040EA5E5040
:1026C0004FEACE2EB4F1FD0C88BFBCF5E06F1ED8EA
:1026D000BEF1004F08BF5FEA500E50F1000041EB21
:1026E000045170BD06F0004646EA010140EA0200CE
:1026F00081EA0301B4EB5C04C2BFD4EB0C0541EAF0
:10270000045170BD41F480114FF0000E013C00F304
:10271000AB8014F1360FDEBF002001F0004170BD28
:10272000C4F10004203C35DA0C341BDC04F1140441
:10273000C4F1200500FA05F320FA04F001FA05F2CD
:1027400040EA020001F0004221F0004110EBD3709A
:1027500021FA04F642EB06015EEA430E08BF20EAC6
:10276000D37070BDC4F10C04C4F1200500FA04F369
:1027700020FA05F001FA04F240EA020001F00041FB
:1027800010EBD37041F100015EEA430E08BF20EA6E
:10279000D37070BDC4F1200500FA05F24EEA020EB6
:1027A00020FA04F301FA05F243EA020321FA04F0E5
:1027B00001F0004121FA04F220EA020000EBD3709C
:1027C0005EEA430E08BF20EAD37070BD94F0000F9C
:1027D0000FD101F00046400041EB010111F4801FD0
:1027E00008BF013CF7D041EA060195F0000F18BF81
:1027F000704703F00046520043EB030313F4801FBD
:1028000008BF013DF7D043EA0603704794EA0C0F76
:102810000CEA135518BF95EA0C0F0CD050EA41068C
:1028200018BF52EA4306D1D181EA030101F0004109
:102830004FF0000070BD50EA410606BF1046194631
:1028400052EA430619D094EA0C0F02D150EA01363D
:1028500013D195EA0C0F05D152EA03361CBF10467E
:1028600019460AD181EA030101F0004141F0FE411D
:1028700041F470014FF0000070BD41F0FE4141F4A1
:10288000780170BD70B54FF0FF0C4CF4E06C1CEAA1
:1028900011541DBF1CEA135594EA0C0F95EA0C0F56
:1028A00000F0A7F8A4EB050481EA030E52EA033511
:1028B0004FEA013100F088804FEA03334FF0805532
:1028C00045EA131343EA12634FEA022245EA11155F
:1028D00045EA10654FEA00260EF000419D4208BF10
:1028E000964244F1FD0404F5407402D25B084FEABD
:1028F0003202B61A65EB03055B084FEA32024FF469
:1029000080104FF4002CB6EB020E75EB030E22BFC5
:10291000B61A754640EA0C005B084FEA3202B6EB85
:10292000020E75EB030E22BFB61A754640EA5C0034
:102930005B084FEA3202B6EB020E75EB030E22BFC4
:10294000B61A754640EA9C005B084FEA3202B6EBC5
:10295000020E75EB030E22BFB61A754640EADC0084
:1029600055EA060E18D04FEA051545EA16754FEAE6
:1029700006164FEAC30343EA52734FEAC2025FEA04
:102980001C1CC0D111F4801F0BD141EA00014FF093
:1029900000004FF0004CB6E711F4801F04BF014364
:1029A0000020B4F1FD0C88BFBCF5E06F3FF6AFAE80
:1029B000B5EB030C04BFB6EB020C5FEA500C50F110
:1029C000000041EB045170BD0EF0004E4EEA113193
:1029D00014EB5C04C2BFD4EB0C0541EA045170BD9A
:1029E00041F480114FF0000E013C90E645EA060EDE
:1029F0008DE60CEA135594EA0C0F08BF95EA0C0F0C
:102A00003FF43BAF94EA0C0F0AD150EA01347FF453
:102A100034AF95EA0C0F7FF425AF104619462CE72A
:102A200095EA0C0F06D152EA03353FF4FDAE10468D
:102A3000194622E750EA410618BF52EA43067FF4DE
:102A4000C5AE50EA41047FF40DAF52EA43057FF46E
:102A5000EBAE12E74FF0FF3C06E000BF4FF0010C79
:102A600002E000BF4FF0010C4DF804CD4FEA410CDD
:102A70007FEA6C5C4FEA430C18BF7FEA6C5C1BD0AA
:102A800001B050EA410C0CBF52EA430C91EA030F2B
:102A900002BF90EA020F0020704710F1000F91EA88
:102AA000030F58BF994208BF90422CBFD8176FEA56
:102AB000E37040F0010070474FEA410C7FEA6C5C24
:102AC00002D150EA013C07D14FEA430C7FEA6C5C2B
:102AD000D6D152EA033CD3D05DF8040B704700BF57
:102AE0008446104662468C461946634600E000BFA5
:102AF00001B5FFF7B7FF002848BF10F1000F01BD77
:102B00004DF808EDFFF7F4FF0CBF012000205DF841
:102B100008FB00BF4DF808EDFFF7EAFF34BF0120C6
:102B200000205DF808FB00BF4DF808EDFFF7E0FF5F
:102B300094BF012000205DF808FB00BF4DF808EDB0
:102B4000FFF7CEFF94BF012000205DF808FB00BF17
:102B50004DF808EDFFF7C4FF34BF012000205DF8F9
:102B600008FB00BF4FEA4102B2F1E04324BFB3F5D6
:102B7000001CDCF1FE5C0DD901F0004C4FEAC002F4
:102B80004CEA5070B2F1004F40EB830008BF20F0D8
:102B90000100704711F0804F21D113F13872BCBF92
:102BA00001F00040704741F480114FEA5252C2F1E7
:102BB0001802C2F1200C10FA0CF320FA02F018BF30
:102BC00040F001004FEAC1234FEAD32303FA0CFC83
:102BD00040EA0C0023FA02F34FEA4303CCE77FEA12
:102BE000625307D150EA01331EBF4FF0FE4040F45C
:102BF0004000704701F0004040F0FE4040F400000B
:102C0000704700BF80F0004002E000BF81F000414B
:102C100042001FBF5FEA410392EA030F7FEA226C82
:102C20007FEA236C6AD04FEA1262D2EB1363C1BF12
:102C3000D218414048404140B8BF5B42192B88BF81
:102C4000704710F0004F40F4000020F07F4018BFA4
:102C5000404211F0004F41F4000121F07F4118BFC4
:102C6000494292EA030F3FD0A2F1010241FA03FC6C
:102C700010EB0C00C3F1200301FA03F100F0004354
:102C800002D5494260EB4000B0F5000F13D3B0F11C
:102C9000807F06D340084FEA310102F10102FE2A8B
:102CA00051D2B1F1004F40EBC25008BF20F00100FB
:102CB00040EA03007047490040EB000010F4000FA9
:102CC000A2F10102EDD1B0FA80FCACF1080CB2EB3C
:102CD0000C0200FA0CF0AABF00EBC250524218439B
:102CE000BCBFD0401843704792F0000F81F4000140
:102CF00006BF80F400000132013BB5E74FEA410313
:102D00007FEA226C18BF7FEA236C21D092EA030F7E
:102D100004D092F0000F08BF0846704790EA010FF8
:102D20001CBF0020704712F07F4F04D1400028BF25
:102D300040F00040704712F100723CBF00F5000007
:102D4000704700F0004343F0FE4040F4000070473D
:102D50007FEA226216BF08467FEA236301464202E9
:102D600006BF5FEA412390EA010F40F480007047FC
:102D70004FF0000304E000BF10F0004348BF4042A2
:102D80005FEA000C08BF704743F0964301464FF0DE
:102D900000001CE050EA010208BF70474FF000033A
:102DA0000AE000BF50EA010208BF704711F000437B
:102DB00002D5404261EB41015FEA010C02BF84464B
:102DC0000146002043F0B64308BFA3F18053A3F5AA
:102DD0000003BCFA8CF2083AA3EBC25310DB01FAF1
:102DE00002FC634400FA02FCC2F12002BCF1004F75
:102DF00020FA02F243EB020008BF20F00100704706
:102E000002F1200201FA02FCC2F1200250EA4C0059
:102E100021FA02F243EB020008BF20EADC7070479F
:102E20004FF0FF0C1CEAD0521EBF1CEAD15392EAAD
:102E30000C0F93EA0C0F6FD01A4480EA010C400289
:102E400018BF5FEA41211ED04FF0006343EA5010E3
:102E500043EA5111A0FB01310CF00040B1F5000F25
:102E60003EBF490041EAD3715B0040EA010062F1D4
:102E70007F02FD2A1DD8B3F1004F40EBC25008BFBE
:102E800020F00100704790F0000F0CF0004C08BFDC
:102E900049024CEA502040EA51207F3AC2BFD2F1A9
:102EA000FF0340EAC250704740F400004FF00003B7
:102EB000013A5DDC12F1190FDCBF00F000407047F1
:102EC000C2F10002410021FA02F1C2F1200200FA2F
:102ED00002FC5FEA310040F1000053EA4C0308BFF6
:102EE00020EADC70704792F0000F00F0004C02BF47
:102EF000400010F4000F013AF9D040EA0C0093F0C2
:102F0000000F01F0004C02BF490011F4000F013B1B
:102F1000F9D041EA0C018FE70CEAD15392EA0C0F89
:102F200018BF93EA0C0F0AD030F0004C18BF31F0F4
:102F3000004CD8D180EA010000F00040704790F0CA
:102F4000000F17BF90F0004F084691F0000F91F06E
:102F5000004F14D092EA0C0F01D142020FD193EA34
:102F60000C0F03D14B0218BF084608D180EA0100BC
:102F700000F0004040F0FE4040F40000704740F098
:102F8000FE4040F4400070474FF0FF0C1CEAD05266
:102F90001EBF1CEAD15392EA0C0F93EA0C0F69D0C2
:102FA000A2EB030280EA010C49024FEA402037D02D
:102FB0004FF0805343EA111143EA10130CF0004024
:102FC0008B4238BF5B0042F17D024FF4000C8B4214
:102FD00024BF5B1A40EA0C00B3EB510F24BFA3EBF4
:102FE000510340EA5C00B3EB910F24BFA3EB9103C4
:102FF00040EA9C00B3EBD10F24BFA3EBD10340EA1E
:10300000DC001B0118BF5FEA1C1CE0D1FD2A3FF663
:1030100050AF8B4240EBC25008BF20F00100704718
:103020000CF0004C4CEA50207F32C2BFD2F1FF03BB
:1030300040EAC250704740F400004FF00003013AEC
:1030400037E792F0000F00F0004C02BF400010F490
:10305000000F013AF9D040EA0C0093F0000F01F0A4
:10306000004C02BF490011F4000F013BF9D041EAC6
:103070000C0195E70CEAD15392EA0C0F08D14202F9
:103080007FF47DAF93EA0C0F7FF470AF084676E7CC
:1030900093EA0C0F04D14B023FF44CAF08466EE7A5
:1030A00030F0004C18BF31F0004CCAD130F0004273
:1030B0007FF45CAF31F000437FF43CAF5FE700BFCB
:1030C0000000034023000000001003402500000022
:1030D00000200340270000000030034033000000C0
:1030E0000040034056000000005003406C00000008
:1030F000006003406E00000000700340700000009C
:1031000000C004407200000000D0044074000000C1
:1031100000E004407600000000F004407800000069
:103120000C000000000003402300000000100340DA
:10313000250000000020034027000000003003406D
:1031400033000000004003404F00000000500340E7
:103150005100000000000E407200000000100E4000
:10316000740000000800000040420F0000201C0016
:1031700080841E0000802500999E360000403800A3
:1031800000093D0000803E0000004B00404B4C0019
:1031900000204E00808D5B0000C05D00008070004C
:1031A00000127A0000007D0080969800001BB70096
:1031B0000080BB00C0E8CE00647ADA000024F4008E
:1031C0000000FA0080A81201002D310100366E01C6
:1031D00040787D0140000000000000003E00080033
:1031E00000000000A00000000200000034540100B4
:1031F000000000002B700600000000002800000006
:103200000000000027000100000000002000000076
:103210000000000050000000020000001AAC000096
:103220000000000017940900000000001698050037
:1032300000000000140000000000000013800800DF
:1032400000000000A00000000800000010000000C6
:103250000000000028000000020000004000000004
:103260000400000060000000000000005D000C0091
:103270000000000050000000000000004E000200AE
:103280000000000041AC0100000000003C00000014
:10329000000000003A80090000000000300000003B
:1032A00000000000280000000000000027000100CE
:1032B00000000000236006000000000021600800FC
:1032C000000000001E000000000000001DC00400FF
:1032D0000000000050000000020000001800000084
:1032E000000000001400000000000000600000006A
:1032F000040000000024F40030003000005A620294
:103300009100910000879303D200D20000B4C4045E
:103310001301130100E1F50554015401000E2707C4
:103320009501950100D0121300389C1C004000400C
:103330001000000000800540100000000050004018
:1033400011000000009005401100000000600040E6
:103350001200000000A005401200000000700040B4
:103360001300000000B005401300000000400240C0
:103370001400000000C0054014000000005002408E
:103380002E00000000D005402E000000006002402A
:103390002F00000000E005402F00000000700240F8
:1033A0003000000000F005403000000000D0034075
:1033B00046000000000006404600000000100640E5
:1033C0004700000000200640480000000030064092
:1033D0007F000000004006408000000000500640D2
:1033E00084000000006006408C000000180000000F
:1033F0000040004010000000008005401000000068
:103400000050004011000000009005401100000035
:10341000006000401200000000A005401200000003
:10342000007000401300000000B0054013000000D1
:10343000004002401400000000C0054014000000DD
:10344000005002402E00000000D005402E00000079
:10345000006002402F00000000E005402F00000047
:10346000007002403000000000F005403000000015
:1034700000D003404300000000000640430000006D
:1034800000100640440000000020064045000000F7
:10349000003006405800000000400640590000007F
:1034A000005006405C000000006006406400000020
:1034B000180000000040004000800540005000401F
:1034C000009005400060004000A0054000700040F2
:1034D00000B005400040024000C0054000500240DE
:1034E00000D005400060024000E00540007002404E
:1034F00000F0054000D003400000064000100640E8
:103500000010064000200640002006400030064023
:103510000030064000400640004006400050064093
:103520000050064000600640006006400070064003
:103530000070064000800640008006400090064073
:103540000090064000070000000600000005000093
:103550000004000000030000000200000001000061
:10356000000000000000000018ED00E01CED00E08D
:1035700020ED00E000E400E004E400E008E400E006
:103580000CE400E010E400E014E400E018E400E0E3
:103590001CE400E020E400E024E400E028E400E093
:1035A0002CE400E030E400E034E400E038E400E043
:1035B0003CE400E040E400E044E400E048E400E0F3
:1035C0004CE400E050E400E054E400E058E400E0A3
:1035D0005CE400E060E400E064E400E068E400E053
:1035E0006CE400E070E400E074E400E078E400E003
:1035F0007CE400E080E400E084E400E088E400E0B3
:1036000000E100E004E100E008E100E00CE100E09E
:1036100010E100E080E100E084E100E088E100E00A
:103620008CE100E090E100E000E200E004E200E074
:1036300008E200E00CE200E010E200E080E200E0DE
:1036400084E200E088E200E08CE200E090E200E04A
:10365000000400F00000034023000000010400F01B
:103660000010034025000000020400F00020034089
:1036700027000000030400F0003003403300000086
:10368000040400F00040034056000000050400F070
:08369000005003406C00000033
:103698000000000000000000000000000000000022
:1036A8000000000000000000000000000000000012
:1036B8000000000000000000000000000000000002
:1036C80000000000000000000000000000000000F2
:043A98002800000002
:00000001FF
